{
  "contractName": "Staking",
  "abi": [
    {
      "anonymous": false,
      "inputs": [
        {
          "indexed": true,
          "internalType": "address",
          "name": "sender",
          "type": "address"
        },
        {
          "indexed": false,
          "internalType": "uint256",
          "name": "amount",
          "type": "uint256"
        }
      ],
      "name": "Stake",
      "type": "event"
    },
    {
      "anonymous": false,
      "inputs": [
        {
          "indexed": false,
          "internalType": "address",
          "name": "",
          "type": "address"
        },
        {
          "indexed": false,
          "internalType": "uint256",
          "name": "",
          "type": "uint256"
        }
      ],
      "name": "Withdrawal",
      "type": "event"
    },
    {
      "inputs": [],
      "name": "stack",
      "outputs": [],
      "stateMutability": "payable",
      "type": "function",
      "payable": true
    },
    {
      "inputs": [],
      "name": "withdraw",
      "outputs": [],
      "stateMutability": "payable",
      "type": "function",
      "payable": true
    },
    {
      "inputs": [],
      "name": "getStakedBalance",
      "outputs": [
        {
          "internalType": "uint256",
          "name": "",
          "type": "uint256"
        }
      ],
      "stateMutability": "view",
      "type": "function",
      "constant": true
    },
    {
      "inputs": [],
      "name": "myStakedAmount",
      "outputs": [
        {
          "internalType": "uint256",
          "name": "",
          "type": "uint256"
        }
      ],
      "stateMutability": "view",
      "type": "function",
      "constant": true
    }
  ],
  "bytecode": "0x6080604052603c42610011919061006f565b600255607842610021919061006f565b60035534801561003057600080fd5b506100a3565b6000819050919050565b7f4e487b7100000000000000000000000000000000000000000000000000000000600052601160045260246000fd5b600061007a82610036565b915061008583610036565b925082820190508082111561009d5761009c610040565b5b92915050565b610aad806100b26000396000f3fe60806040526004361061003f5760003560e01c8063138ef151146100445780632e9b1a851461004e5780633ccfd60b146100795780637696586714610083575b600080fd5b61004c6100ae565b005b34801561005a57600080fd5b506100636102a5565b60405161007091906105d6565b60405180910390f35b6100816102eb565b005b34801561008f57600080fd5b506100986105b5565b6040516100a591906105d6565b60405180910390f35b6000426002546100be9190610620565b905060008111610103576040517f08c379a00000000000000000000000000000000000000000000000000000000081526004016100fa906106d7565b60405180910390fd5b60003411610146576040517f08c379a000000000000000000000000000000000000000000000000000000000815260040161013d90610743565b60405180910390fd5b60008060003373ffffffffffffffffffffffffffffffffffffffff1673ffffffffffffffffffffffffffffffffffffffff168152602001908152602001600020549050600081146101cc576040517f08c379a00000000000000000000000000000000000000000000000000000000081526004016101c3906107af565b60405180910390fd5b346000803373ffffffffffffffffffffffffffffffffffffffff1673ffffffffffffffffffffffffffffffffffffffff1681526020019081526020016000208190555042600160003373ffffffffffffffffffffffffffffffffffffffff1673ffffffffffffffffffffffffffffffffffffffff168152602001908152602001600020819055503373ffffffffffffffffffffffffffffffffffffffff167febedb8b3c678666e7f36970bc8f57abf6d8fa2e828c0da91ea5b75bf68ed101a3460405161029991906105d6565b60405180910390a25050565b60008060003373ffffffffffffffffffffffffffffffffffffffff1673ffffffffffffffffffffffffffffffffffffffff16815260200190815260200160002054905090565b6000600254426102fb9190610620565b905060008111610340576040517f08c379a0000000000000000000000000000000000000000000000000000000008152600401610337906106d7565b60405180910390fd5b6000426003546103509190610620565b905060008111610395576040517f08c379a000000000000000000000000000000000000000000000000000000000815260040161038c90610841565b60405180910390fd5b60008060003373ffffffffffffffffffffffffffffffffffffffff1673ffffffffffffffffffffffffffffffffffffffff1681526020019081526020016000205490506000811161041b576040517f08c379a0000000000000000000000000000000000000000000000000000000008152600401610412906108ad565b60405180910390fd5b600064174876e800600160003373ffffffffffffffffffffffffffffffffffffffff1673ffffffffffffffffffffffffffffffffffffffff168152602001908152602001600020544261046e9190610620565b61047891906108cd565b826104839190610927565b905060008060003373ffffffffffffffffffffffffffffffffffffffff1673ffffffffffffffffffffffffffffffffffffffff1681526020019081526020016000208190555060003373ffffffffffffffffffffffffffffffffffffffff16826040516104ef9061098c565b60006040518083038185875af1925050503d806000811461052c576040519150601f19603f3d011682016040523d82523d6000602084013e610531565b606091505b5050905080610575576040517f08c379a000000000000000000000000000000000000000000000000000000000815260040161056c906109ed565b60405180910390fd5b7f7fcf532c15f0a6db0bd6d0e038bea71d30d808c7d98cb3bf7268a95bf5081b6533836040516105a6929190610a4e565b60405180910390a15050505050565b600047905090565b6000819050919050565b6105d0816105bd565b82525050565b60006020820190506105eb60008301846105c7565b92915050565b7f4e487b7100000000000000000000000000000000000000000000000000000000600052601160045260246000fd5b600061062b826105bd565b9150610636836105bd565b925082820390508181111561064e5761064d6105f1565b5b92915050565b600082825260208201905092915050565b7f5374616b696e6720646561646c696e6520686173206265656e2072656163686560008201527f6400000000000000000000000000000000000000000000000000000000000000602082015250565b60006106c1602183610654565b91506106cc82610665565b604082019050919050565b600060208201905081810360008301526106f0816106b4565b9050919050565b7f416d6f756e742073686f756c64206265203e2030000000000000000000000000600082015250565b600061072d601483610654565b9150610738826106f7565b602082019050919050565b6000602082019050818103600083015261075c81610720565b9050919050565b7f43616e206e6f7420737461636b20326e642074696d6500000000000000000000600082015250565b6000610799601683610654565b91506107a482610763565b602082019050919050565b600060208201905081810360008301526107c88161078c565b9050919050565b7f5769746864726177616c20646561646c696e6520686173206265656e2072656160008201527f6368656400000000000000000000000000000000000000000000000000000000602082015250565b600061082b602483610654565b9150610836826107cf565b604082019050919050565b6000602082019050818103600083015261085a8161081e565b9050919050565b7f796f752068617665206e6f2062616c616e636520746f20776974686472617700600082015250565b6000610897601f83610654565b91506108a282610861565b602082019050919050565b600060208201905081810360008301526108c68161088a565b9050919050565b60006108d8826105bd565b91506108e3836105bd565b9250817fffffffffffffffffffffffffffffffffffffffffffffffffffffffffffffffff048311821515161561091c5761091b6105f1565b5b828202905092915050565b6000610932826105bd565b915061093d836105bd565b9250828201905080821115610955576109546105f1565b5b92915050565b600081905092915050565b50565b600061097660008361095b565b915061098182610966565b600082019050919050565b600061099782610969565b9150819050919050565b7f5249503b207769746864726177616c206661696c6564203a2820000000000000600082015250565b60006109d7601a83610654565b91506109e2826109a1565b602082019050919050565b60006020820190508181036000830152610a06816109ca565b9050919050565b600073ffffffffffffffffffffffffffffffffffffffff82169050919050565b6000610a3882610a0d565b9050919050565b610a4881610a2d565b82525050565b6000604082019050610a636000830185610a3f565b610a7060208301846105c7565b939250505056fea26469706673582212202d8c04586d81d7611c23edd275a73f749882e732d683ea5df4012fd04bd720f264736f6c63430008100033",
  "immutableReferences": {},
  "source": "// SPDX-License-Identifier: MIT\npragma solidity >=0.4.22 <0.9.0;\n\ncontract Staking {\n\n    mapping(address=>uint) balances;\n    mapping(address=>uint) stackingTime;\n\n    uint stakingDeadline = block.timestamp +  1 minutes;\n    uint withdrawalDeadline = block.timestamp +  2 minutes;\n    uint constant rewardRatePerSecond = 0.0000001 ether;\n\n    // Events\n    event Stake(address indexed sender, uint256 amount);\n    event Withdrawal(address, uint);\n\n\n    function stack() public payable {\n        uint stakingTimeLeft = stakingDeadline - block.timestamp;\n        require(stakingTimeLeft>0, \"Staking deadline has been reached\");\n        require(msg.value>0, \"Amount should be > 0\");\n        uint stackedAmount = balances[msg.sender];\n                \n        require(stackedAmount==0, \"Can not stack 2nd time\");\n        balances[msg.sender] = msg.value;\n\n        //we need to capture time to calculate Interest\n        stackingTime[msg.sender] = block.timestamp;\n\n        emit Stake(msg.sender, msg.value);\n    }\n\n    function withdraw() public payable {\n         //can not Withdrawal until stacking time over\n        uint stakingTimeLeft = block.timestamp - stakingDeadline;\n        require(stakingTimeLeft>0, \"Staking deadline has been reached\");\n\n        //can not Withdrawal after withdrawalDealline\n        uint withdrawalTimeLeft = withdrawalDeadline - block.timestamp;\n        require(withdrawalTimeLeft>0, \"Withdrawal deadline has been reached\");\n        \n        //get staked amount and check it should be > 0\n        uint stackedAmount = balances[msg.sender];\n        require(stackedAmount>0, \"you have no balance to withdraw\");\n        \n        // calculate Interest earn during stking time.\n        uint amountWithInterest = stackedAmount + ((block.timestamp - stackingTime[msg.sender]) * rewardRatePerSecond);\n        balances[msg.sender] = 0;\n\n        (bool sent,) = msg.sender.call{value: amountWithInterest}(\"\");\n\n       \n        require(sent, \"RIP; withdrawal failed :( \");\n        emit Withdrawal(msg.sender, amountWithInterest);\n    }\n\n    function getStakedBalance() public view returns (uint) {\n        return address(this).balance;\n    }\n\n    function myStakedAmount() public view returns (uint) {\n        return balances[msg.sender];\n    }\n\n}",
  "sourcePath": "/Users/hiteshumaletiya/Documents/Demo/blockchain/ethereum/stacking/src/contracts/Staking.sol",
  "compiler": {
    "name": "solc",
    "version": "0.8.16+commit.07a7930e.Emscripten.clang"
  },
  "schemaVersion": "3.4.9",
  "updatedAt": "2022-10-04T12:05:09.392Z",
  "networkType": "ethereum",
  "devdoc": {
    "kind": "dev",
    "methods": {},
    "version": 1
  },
  "userdoc": {
    "kind": "user",
    "methods": {},
    "version": 1
  }
}